:020000040800F2
:10000000D0070020DD010008AB1B0008C91A00085A
:10001000A91B000889040008151F00080000000043
:10002000000000000000000000000000AF1B0008FE
:100030000905000800000000AD1B0008B11B000806
:10004000F7010008F7010008F7010008F7010008B0
:10005000F7010008F7010008F7010008F7010008A0
:10006000F7010008F7010008F7010008F701000890
:10007000F7010008F7010008F7010008F701000880
:10008000F7010008F7010008F7010008F701000870
:100090008D040008F7010008F7010008F7010008C7
:1000A000F7010008F7010008F7010008F701000850
:1000B000F7010008F7010008F7010008F701000840
:1000C000F7010008F7010008F7010008F701000830
:1000D000F7010008F7010008091F0008F7010008F0
:1000E000F7010008F7010008F7010008F701000810
:1000F000F7010008F7010008F7010008F701000800
:10010000F7010008F7010008F7010008F7010008EF
:10011000651C0008F7010008F7010008F701000856
:10012000F7010008F7010008F7010008F7010008CF
:10013000F70100080000000000000000F7010008BF
:10014000F7010008F7010008F7010008F7010008AF
:10015000F7010008F7010008F7010008F70100089F
:10016000F7010008F7010008F7010008F70100088F
:10017000F7010008F7010008F7010008000000007F
:1001800000000000F701000800000000000000006F
:10019000F70100080000000000000000F70100085F
:1001A000000000000000000000000000F70100084F
:1001B000F7010008F7010008F7010008F70100083F
:1001C000F7010008DFF810D000F03EF900480047C2
:1001D000412C0008AFF30080D0070020064880477C
:1001E00006480047FEE7FEE7FEE7FEE7FEE7FEE71C
:1001F000FEE7FEE7FEE7FEE7551C0008C501000824
:100200002DE9F05F0546002092469B46884606464B
:10021000814640241BE0284641464746224600F0DE
:10022000AEF853465A46C01A914110D311461846AB
:10023000224600F095F82D1A67EB01084F4622463A
:100240000120002100F08CF817EB00094E41201E20
:10025000A4F10104DFDC484631462A464346BDE8A6
:10026000F09F40EA01039B0703D009E008C9121F71
:1002700008C0042AFAD203E011F8013B00F8013B60
:10028000521EF9D27047D2B201E000F8012B491E8C
:10029000FBD270470022F6E710B513460A46044623
:1002A0001946FFF7F0FF204610BD421C10F8011B55
:1002B0000029FBD1801A704730B50546002003465F
:1002C00000E05B1C934205D2EC5CC85C201A01D1B3
:1002D000002CF6D130BD2DE9F04791460F468046FF
:1002E0000446002614F8015B2DB100F059F80068AF
:1002F000405DC007F6D12B2D02D02D2D18D0641EE5
:100300004A463946204600F04FF827B13968A142E5
:1003100001D1C7F8008071054FF002040BD54042AF
:10032000002803DD01F046FE0460A007BDE8F08769
:1003300046F48066E4E70028F8DA01F03BFE04604A
:100340006FF00040F2E770B5064601F033FE046836
:1003500005460A2200213046FFF7BDFF2C6070BD24
:10036000202A04DB203A00FA02F100207047914075
:10037000C2F1200320FA03F3194390407047202A6A
:1003800004DB203A21FA02F00021704721FA02F33F
:10039000D040C2F120029140084319467047000046
:1003A00000487047182E00082DE9F05F824600785B
:1003B000002715468B460AF10104B946302801D0C2
:1003C0009DB113E014F8010B0127782803D05828B9
:1003D00001D045B10AE00DB1102D07D1002710253D
:1003E00014F8010B02E0082500E00A250026B046BB
:1003F0000EE005FB080005FB06F1012701EB1046A6
:100400001FFA80F8B6F5803F00D3B94614F8010B07
:10041000294600F02BF80028EBDABBF1000F05D0DD
:100420000FB1641E00E05446CBF80040B9F1000F54
:1004300006D001F0BFFD02210160C81EBDE8F09F9B
:1004400048EA0640FAE70000064C074D06E0E0687F
:1004500040F0010394E8070098471034AC42F6D30B
:10046000FFF7B4FE08330008283300083A2800D20A
:10047000303820F02002412A01D3A2F1370088420F
:1004800001D34FF0FF307047FEE70000014800F055
:10049000B8B900000801002000B58BB00020012190
:1004A000CDE906010422CDE90202059000900190F9
:1004B00004900E20CDE908106946074800F0A6F820
:1004C00008B172B6FEE7044800F098FB022102482A
:1004D00000F01BF80BB000BD0801002007B588B084
:1004E0000020082106900290CDE9030140F2271078
:1004F000009006AB0DF122026946024800F017F8A1
:100500000BB000BD08010020704790F82020012AA0
:1005100007D0022A05D0416A41F4802141620120BE
:100520007047006842690A43426100207047F0B595
:1005300090F820500468A468012D05D0022D03D046
:10054000416A41F480215DE014F0406F01D1E50083
:1005500055D5C4F30164022C03D9416A41F400016A
:1005600050E00125A5401D608D684FF4C0739DB11A
:10057000CE6835434E6845EAC605066803EB0417A6
:10058000F5514FF4C275076805EB04150E697E51ED
:10059000097D012905D009E00E88CD6845EA465558
:1005A000EBE701684E5946F480764E511179D579C2
:1005B000567941EA056195792D0445EA06252943D6
:1005C0004FF4C676056806EB0416A9511178D57864
:1005D00041EA0561957852782D0445EA02221143DB
:1005E0004FF4C475026805EB04155151006803EB24
:1005F0000411425842F0010242500020F0BD416A0D
:1006000041F4001141620120F0BD000010B590F8E6
:100610002020012A07D0022A05D0416A41F4802116
:100620004162012010BD3B48D0F8002242F0010297
:10063000C0F80022D0F8002222F47C52C0F8002238
:10064000D0F800224B6A42EA0322C0F800220A7D59
:1006500002F01F0301229A40D0F81C329343C0F8E5
:100660001C32CB69B3B9D0F80C329343C0F80C32CA
:100670008C894B6864F31F434C6900EBC404C4F8D5
:1006800040320C890B6864F31F434C6900EBC404CF
:10069000C4F84432CB69012B16D1D0F80C32134385
:1006A000C0F80C320C884B6864F31F434C6900EBB4
:1006B000C404C4F840320C89CB6864F31F434C690E
:1006C00000EBC404C4F844328B69002BD0F8043228
:1006D0000ED01343C0F804320B69002BD0F814324B
:1006E00008D01343C0F81432096A012904D008E085
:1006F0009343EFE79343F5E7D0F81C121143C0F89A
:100700001C12D0F8001221F00101C0F800120020E4
:1007100010BD000000640040704730B590F82040E4
:10072000012C05D0022C03D0416A41F480215DE008
:100730000468002955D02469A40754D04FF4D87414
:10074000056804EB01142D5915F004059560056842
:100750002D594ED0ED08556005682C5904F002045F
:10076000D4604FF4DA74056804EB01142D5905F0D8
:100770000F05156105682D59C5F3072595610568B5
:100780002C59240C54614FF4DC72046802EB011202
:10079000A4581C700468A458240A5C700468A45807
:1007A000240C9C700468A258120EDA704FF4DE72AA
:1007B000046802EB0112A4581C710468A458240AAE
:1007C0005C710468A458240C9C710468A258120E31
:1007D000DA71006881B1016941F0200101610020F6
:1007E00030BDE468A8E7416A41F40011416201208C
:1007F00030BD6D0D1560AFE7C16841F02001C160EB
:10080000EDE72DE9F05F0546006800244669D0F861
:1008100004908768D0F80CB0D0F810A0D0F81880F9
:10082000F10748D0F90714D001218160B80703D53A
:10083000284600F010FA0CE0780702D54FF4006467
:1008400007E0380702D54FF4805402E0284600F054
:1008500001FAF80516D529684FF480708860B8054C
:1008600003D5284600F0F9F90CE0780502D544F4E8
:10087000005407E0380502D544F4804402E02846DD
:1008800000F0EAF9F80316D529684FF48030886043
:10089000B80303D5284600F0E2F90CE0780302D54E
:1008A00044F4004407E0380302D544F4803402E005
:1008B000284600F0D3F9300707D55FEACB6004D5AE
:1008C0002968102044F40074C86070074FF00807CE
:1008D00007D55FEA0B7004D52868C760284600F08A
:1008E00059F9B00706D52868C068800702D02846A5
:1008F00000F052F9700607D55FEACA6004D529688E
:10090000102044F480640861B00607D55FEA0A70DD
:1009100004D528680761284600F06CF9F00606D572
:1009200028680069800702D0284600F064F9B00307
:1009300008D55FEAC96005D52968102048602846B7
:1009400000F05AF9F00307D55FEA097004D528686A
:100950004760284600F084F9300446D55FEA4970C4
:1009600040D5F00504D55FEAC87001D044F0010419
:10097000B00504D55FEA887001D544F00204700523
:1009800004D55FEA487001D544F00404300529D548
:1009900018F0700F26D008F07000402815D006DC43
:1009A000102809D020280AD0302816D10AE0502873
:1009B0000ED0602811D10EE044F008040DE044F0A0
:1009C00010040AE044F0200407E044F0400404E08E
:1009D00044F0800401E044F480742868816921F0C7
:1009E00070018161296804204860002C05D0686A84
:1009F000204368622846FFF78FFEBDE8F09F70B580
:100A0000040003D094F8200010B104E0012070BD70
:100A1000204600F081F82068016821F002010160A1
:100A200000F074FA0546052604E000F06FFA401B5A
:100A30000A2811D8206840688007F6D42068016829
:100A400041F00101016000F061FA05460BE000F0A1
:100A50005DFA401B0A2806D9606A40F400306062E3
:100A600084F82060D2E720684068C007EFD0207E7D
:100A70000128206801683DD021F080010160607E7E
:100A800001282068016838D021F040010160A07E73
:100A900001282068016833D021F020010160E07E48
:100AA0000128206801682ED041F010010160207FEC
:100AB00001282068016829D021F008010160607FC9
:100AC00001282068016824D021F004010160D4E9E4
:100AD00002010843D4E90412114308436168491E26
:100AE00008432168C86100206062012084F820006A
:100AF000002070BD41F08001C0E741F04001C5E732
:100B000041F02001CAE721F01001CFE741F00801D0
:100B1000D4E741F00401D9E710B586B004461421AA
:100B20006846FFF7B7FB18492068884229D1174863
:100B30000021026842F000720260006800F000705C
:100B4000059012481038026842F002020260006804
:100B500000F0020005904FF4407000900220CDE9B3
:100B6000010103200390092004906946084800F021
:100B7000D1F800221146142000F038FA142000F0B9
:100B800027FA06B010BD0000006400404038024063
:100B9000000402407047000030B505468BB02021AC
:100BA000124800F0A5F9124C6A46A31C0021284601
:100BB000FFF7B3FD00994FF49470814214D1A4F172
:100BC00030022080D2E90C01128FADF82420099A5E
:100BD00001F05AFD0446FFF768FB82B20448642323
:100BE0002146883800F016FF0BB030BD00000240EF
:100BF000B8010020704770477047000070B5044688
:100C000090F82000012804D0606A40F4002060625F
:100C100018E0022084F820002068016821F001011A
:100C2000016000F073F905460EE000BF00F06EF9B8
:100C3000401B0A2808D9606A40F400306062052031
:100C400084F82000012070BD20684068C007EDD105
:100C5000606270BD7047704770477047704770475B
:100C600070472DE9F0410446876D00F04FF90646C4
:100C700094F835000025022806D08020606584F8AD
:100C800034500120BDE8F0812068016821F0160190
:100C900001602068416921F080014161206C08B940
:100CA000A06C20B12068016821F008010160206873
:100CB000016821F0010101600BE000F027F9801BC1
:100CC000052806D92020606504F8345F0320607091
:100CD000D8E720680068C007EFD194F85C103F2087
:100CE0008840B86004F8345F012060700020C9E7D4
:100CF00090F83510022903D080214165012070470A
:100D0000052180F835100068016821F001010160BB
:100D1000002070472DE9F84FDFF8ACA10022012434
:100D20000AF1040B03254FF00F090BF1040E00BF6D
:100D30000B6804FA02F63340B34272D10F7907F020
:100D40000307012F01D0022F16D187684FEA42080E
:100D500005FA08FC27EA0C07D1F80CC00CFA08FCCD
:100D60004CEA070CC0F808C04768B7430E79C6F3D1
:100D7000001696403E4346600E79F643B6070AD009
:100D8000C6684FEA420C05FA0CF7BE438F6807FAB3
:100D90000CF73743C7600E7906F00306022E10D118
:100DA000D60800EB8608D8F8206057074FEAD76CC2
:100DB00009FA0CF7BE430F6907FA0CF73743C8F876
:100DC000207006684FEA420C05FA0CF7BE430F7913
:100DD00007F0030707FA0CF7374307604E68F60081
:100DE0006BD53A4E376847F480473760366822F053
:100DF000030706F480460096354E07EB060CDCF838
:100E0000086897074FEA177809FA08F7BE43314F89
:100E1000B84201D100271FE02F4FB84202D101276D
:100E20001AE04AE02D4FB84201D1022714E02C4FBE
:100E3000B84201D103270FE02A4FB84201D104275D
:100E40000AE0294FB84201D1052705E0274FB842F3
:100E500001D1062700E0072707FA08F73743CCF847
:100E60000878DAF800605746D1F804C09E435FEA7C
:100E7000CC3C00D51E433E60DBF800605F46D1F8F5
:100E800004C09E435FEA8C3C00D51E433E60DEF802
:100E900000607746D1F804C09E435FEACC2C00D5B1
:100EA0001E433E60084F0C373E68D1F804C09E4395
:100EB0005FEA8C2C00D51E433E60521C102AFFF4C2
:100EC00037AFBDE8F88F0000003C014044380240D5
:100ED00000300140000002400004024000080240CF
:100EE000000C0240001002400014024000180240B2
:100EF000426921EA02030A4043EA024181617047E4
:100F00000AB1816170470904FBE70000014880686D
:100F100070470000080000200248816802781144F0
:100F200081607047080000200B4810B5016841F44B
:100F300000710160016841F480610160016841F461
:100F400080710160032000F071F8002000F006F8C5
:100F500000F024F8002010BD003C024070B50D4D9B
:100F600004464FF47A712878B1FBF0F00A49096819
:100F7000B1FBF0F000F074FB48B9102C07D200224E
:100F80002146501E00F032F800206C6070BD012038
:100F900070BD000008000020140000200B4882B043
:100FA000016841F480410160006800F480400090D5
:100FB0000648001F016841F080510160006800F0A0
:100FC00080500090072002B000F030B84438024052
:100FD000002809DB00F01F02012191404009800038
:100FE00000F1E020C0F8001170470000F0B40E4B93
:100FF0001B680C46C3F30223C3F10705042D00D977
:101000000425191D072901D2002300E0DB1E01265B
:1010100006FA05F1491E214099409E40761E164071
:101020003143F0BC00F0B6BF0CED00E0064900F023
:10103000070208684FF6FF03184040EA0220034AFF
:1010400010430860704700000CED00E00000FA0556
:101050002DE9F8431748016841F0805101600068AC
:10106000154F00F08050012600903E64FFF74EFFC0
:1010700005464FF47A78114C05E000BFFFF746FFB4
:10108000401B40450DD86068C003F7D57E64FFF76C
:101090003DFF0546464607E0FFF738FF401BB042DC
:1010A00002D90320BDE8F88360688003F4D50020EE
:1010B000F8E700004038024000000E420070004097
:1010C0002DE9F0470E46050065D0DFF81481D8F809
:1010D0000000F7B200F00F00B04207D288F80070AD
:1010E000D8F8000000F00F00B04254D128683D4C01
:1010F000810712D5400703D5206840F4E0502060F6
:101100002878000703D5206840F4604020602068FC
:10111000A96820F0F000084320602878C0072DD08F
:10112000304968680839012812D0022813D00328F2
:1011300011D00968890700292DDA216821F00301FF
:1011400001432160FFF7E2FE814641F2883A0EE05A
:1011500009688903EFE709688901ECE7FFF7D6FE24
:10116000A0EB0901514502D90320BDE8F0872068B2
:10117000696800F00C00B0EB810FEFD1D8F80010D7
:10118000404601F00F01B14207D90770006800F036
:101190000F00B04201D00120E7E72878400705D5CD
:1011A0002068E96820F4E0500843206028780007B0
:1011B00006D52068296920F4604040EAC10020601B
:1011C00000F038F82168084AC1F30311515CC840A7
:1011D0000649086006480068FFF7C0FE0020C4E723
:1011E000003C024008380240102D00081400002086
:1011F0000C0000200448054900680968044AC1F34E
:101200008221515CC8407047140000200838024019
:10121000202D00080448054900680968044AC1F304
:101220004231515CC8407047140000200838024029
:10123000202D0008224810B5006810F00C0221484B
:1012400015D04110042A11D01D4C241F082A0FD09C
:101250000C2A0CD12268236802F03F025B0221D5E0
:101260002068C0F38810A0FB010120E0084610BDF3
:101270002268236802F03F025B0205D52068C0F3B4
:101280008810A0FB010104E02168C1F38811A1FBD3
:1012900000010023FEF7B4FF2168C1F30141491C9E
:1012A00049000AE02168C1F38811A1FB0001002375
:1012B000FEF7A6FF2168C1F30271B0FBF1F010BD8B
:1012C000083802400024F4002DE9F84F04007DD0D6
:1012D000DFF878B32078ABF10407C007A7F1040565
:1012E00050D0DBF800105846C1F3810101290FD01E
:1012F0000168C1F38101022902D13968490207D48A
:101300000068C0F38100032809D13868400206D57F
:101310002868800336D560680028D8D032E060683D
:10132000B0F5803F10D0B0F5A02F286810D020F481
:1013300080302860286820F4802028606068A0B190
:10134000FFF7E4FD06460CE0286840F48030F4E73F
:1013500040F480202860F7E7FFF7D8FD801B642861
:1013600076D828688003F7D50CE0FFF7CFFD064656
:1013700005E000BFFFF7CAFD801B6428F0D828688D
:101380008003F7D42078DFF8C89280074FF0000A76
:1013900044D5DBF80010584611F00C0F0FD001684F
:1013A000C1F38101022902D13968490207D50068D9
:1013B000C0F3810003280AD13868400207D42868A6
:1013C000800715D5E068012800D111E03AE1E06816
:1013D000B0B10120C9F80000FFF798FD064604E00F
:1013E000FFF794FD801B0228BAD828688007F7D53C
:1013F0002868216920F0F80040EAC10028600DE06B
:10140000C9F800A0FFF782FD064604E0FFF77EFD65
:10141000801B02281CD828688007F7D42078000792
:1014200027D5DFF828828B48616908F16C0881B103
:1014300001210160FFF76AFD064604E0FFF766FD43
:10144000801B022804D8D8F800008007F6D510E0E9
:1014500089E0C0F800A0FFF759FD064605E000BF8F
:10146000FFF754FD801B02287DD8D8F800008007C4
:10147000F6D42078400769D574484FF0000838301A
:101480000068C0000BD471483830016841F08051C9
:10149000016000684FF0010800F0805000906E4E2F
:1014A0003068C00511D4306840F480703060FFF7B8
:1014B0002DFD009006E000BFFFF728FD0099401ABF
:1014C000022850D83068C005F6D5604EA06868364E
:1014D00001280FD00528306810D020F001003060BE
:1014E000306820F004003060A068B8B1FFF70EFD4E
:1014F00000900FE0306840F00100F4E740F0040095
:101500003060F7E7FFF702FD0099411A41F2883099
:10151000814264D830688007F4D50EE0FFF7F6FC0E
:10152000009007E0FFF7F2FC0099411A41F2883081
:10153000814254D830688007F4D4B8F1000F05D048
:1015400042483830016821F080510160A069A8B399
:10155000DBF80010C1F38101022947D00228C9F845
:1015600060A005D000E03AE0FFF7D0FC044639E087
:10157000FFF7CCFC064604E0FFF7C8FC801B0228FE
:101580002DD828688001F7D4F4E907010843E16801
:10159000324A490802EB0141A26841EA821108433C
:1015A000217C40EA0160217D40EA01703860012021
:1015B000C9F86000FFF7AAFC044606E044E000BF5B
:1015C000FFF7A4FC001B022809D828688001F7D582
:1015D0003AE000BFFFF79AFC001B022802D9032063
:1015E000BDE8F88F28688001F4D42DE00128F7D0F9
:1015F0003868E26900F48001914223D1226A00F048
:101600003F0191421ED147F6C071626A0140B1EBC1
:10161000821F17D1A26A4FF0FF3300F4403103EB71
:101620005202B1EB024F0DD194F82C2000F0706102
:10163000B1EB026F06D194F8301000F0E040B0EB4F
:10164000017F01D00120CBE70020C9E70838024024
:1016500000004742800E4742007000400000FFFF3C
:1016600010B5401EB0F1807F01D3012010BD4FF0B6
:10167000E02460610F21601700F08CFC0020A06165
:1016800007202061002010BD70477047F8B5026840
:1016900004461068D168536910F00F0F4FF0000531
:1016A00053D003F0010601F4907737435FD0C207AF
:1016B00005D0CA0503D5226C42F00102226442071C
:1016C00005D5DA0703D0226C42F0020222648207B9
:1016D00005D5DA0703D0226C42F004022264020727
:1016E00007D501F02002324303D0226C42F00802F9
:1016F0002264226C002A34D0800604D5880602D5E4
:10170000204600F0D5FA20684069216CC0F38010B3
:10171000090700D430B3204600F0B2FA20684169CE
:1017200049061BD5416921F040014161A06BA8B178
:1017300059490165A06BFFF7DBFA002811D0A06BB7
:10174000016D01B0BDE8F040084783060FD58B0658
:101750000DD52046BDE8F84000F0AABA2046FFF7B4
:1017600094FFF8BD2046FFF790FF2564F8BD266B77
:101770002023012E53D1C60651D5CE064FD5106871
:1017800050680090506940062BD5A16B08684068EE
:101790000004000CEAD0A68D8642E7D9E085C8692E
:1017A000B0F5807F18D0D06820F48070D0602068B9
:1017B000416921F0010141612068416921F0400146
:1017C000416184F83E3025632068C16821F0100132
:1017D000C160A06BFFF745FAA08DE18D401A81B280
:1017E00019E0A08DE18D401A81B2E08D0028BDD0B6
:1017F0000029BBD0D06820F49070D0602068426986
:1018000022F00102426184F83E3025632068C268FC
:1018100022F01002C2602046FFF736FFF8BD050631
:101820002BD50D0629D594F83D002128F6D1A068C6
:10183000B0F5805F01D12069B0B1206A411C2162FE
:10184000216800784860E08C401E0004000CE084B1
:10185000E4D12068C16821F08001C1602068C168BE
:1018600041F04001C160F8BD206A0088C0F3080063
:101870005060206A801C2062E5E74006F3D54806E8
:10188000F1D5D168204621F04001D16084F83D3087
:1018900000F019F9F8BD0000711C000870B50400D3
:1018A00004D094F83D00002510B106E0012070BD81
:1018B00084F83C50204600F023F8242084F83D00B2
:1018C0002068C16821F40051C160204600F048FA48
:1018D0002068016921F4904101612068416921F08B
:1018E0002A0141612068C16841F40051C16025644A
:1018F000202084F83D0084F83E00002070BD0000E8
:10190000F0B587B0044614216846FEF7C3FC2A49A7
:10191000284F26680025284A103903230224274827
:10192000BE4220D1156845F400251560126802F406
:10193000002205920A6842F001020A60096801F07B
:10194000010105910121CDE90213CDE900340821FF
:1019500004916946FFF7DEF9002211463420FFF7B3
:1019600045FB342021E0164FBE4220D1166846F4D4
:1019700000361660126802F4003205920A6842F0DE
:1019800001020A60096801F0010105910C218DE84E
:1019900032000721CDE903316946FFF7BBF9002288
:1019A00011462620FFF722FB2620FFF711FB07B088
:1019B000F0BD0000004C00404038024000000240F2
:1019C0000044004090F83E30202B0ED159B152B166
:1019D00090F83C30012B08D0012380F83C300023E4
:1019E000036300F043BA01207047022070470000F3
:1019F00010B5064C607801F071F901226060611C3D
:101A0000BDE810400248FFF7DDBF000000000020E5
:101A1000300100202DE9F843044690F83D001F46B0
:101A200016460D4620284CD1C5B1BEB194F83C00F5
:101A3000012846D0012084F83C004FF00008C4F88B
:101A40004080212084F83D00FFF760FAA68481469B
:101A5000E684A068B0F5805F03D004E00120BDE813
:101A6000F883206928B12E465FF0000584F83C8099
:101A70000EE00026FAE78021204600F012FAA0B915
:101A8000AEB116F8010B21684860E08C401EE0847E
:101A9000E08C4B464FF0000200970028EBD14FF04E
:101AA0004001204600F0FDF930B10320D7E735F8BA
:101AB000020BC0F30800E6E7202084F83D00002078
:101AC000CDE70220CBE77047FEE700000F4810B5D6
:101AD0000D4901600D21416000214FF440328160C9
:101AE000C0E903124FF4801242610176012242766E
:101AF0008276C17601774177FEF781FF002801D019
:101B000072B6FEE710BD000000640040080100202E
:101B100030B587B014216846FEF7BCFB1E48002490
:101B2000016841F004010160016801F004010591C0
:101B3000016841F080010160016801F080010591B8
:101B4000016841F001010160016801F001010591A6
:101B5000016841F0020101600068104D00F00200D0
:101B60000590002220212846FFF7CAF94FF40050C3
:101B700000900B48CDE9010469460A48FFF7CAF80E
:101B8000202000900120CDE90104694628460394F5
:101B9000FFF7C0F807B030BD303802400000024007
:101BA0000000211000080240FEE7FEE77047704782
:101BB000FFF7B2B930B593B034216846FEF76AFB3F
:101BC00014210DA8FEF766FB20480025016841F0AE
:101BD00080510160006800F0805012901C4801683C
:101BE00041F4404101600068022400F4404012903A
:101BF0000120039010200490009406940820CDE961
:101C00000750B420CDE909040B9468460C94FFF703
:101C10005BFB08B172B6FEE7FFF71AFA08B172B6BD
:101C2000FEE70DA90F2081E831004FF4A05010907D
:101C30004FF48050119005210DA8FFF741FA0028BC
:101C400001D072B6FEE713B030BD0000403802404C
:101C5000007000400248016841F470010160704763
:101C600088ED00E00148FFF711BD000030010020C1
:101C700010B5806B0021C185C184FFF706FD10BD42
:101C80000168CA6822F49072CA6001684A6922F049
:101C900001024A61016B012904D10168CA6822F07E
:101CA0001002CA60202180F83E10002101637047B5
:101CB00010B5044690F83E00222801D0022010BD45
:101CC000A1684FF48052914201D1206920B1A06AED
:101CD00091421BD049B10AE02168A06A4968C1F36A
:101CE00008010180A06A801C08E0216971B12168A7
:101CF000496801F07F010170A06A401CA062E08D7C
:101D0000401E0004000CE08503D01CE021684968F7
:101D1000F1E72068C16821F02001C1602068C16836
:101D200021F48071C1602068416921F001014161A5
:101D3000202084F83E00206B012806D02046FFF7C3
:101D400057FE00202063002010BD2068C16821F0EC
:101D50001001C160A18D2046FFF796FCF1E700005D
:101D600070B5044600680169E26821F440511143EE
:101D700001612169A068E269084361691143084370
:101D80002168CA6849F20C639A430243CA6020681A
:101D90004169A26921F440711143416131492068D0
:101DA000884202D03049884202D1FFF733FA01E07D
:101DB000FFF720FAE2690023192164253226B2F5E3
:101DC000004F626828D0A0FB0101930F9200FEF73C
:101DD00017FA0146B0FBF5F06FF01802504301EB23
:101DE000800006EB0010B0FBF5F000F0F002B1FB54
:101DF000F5F002EB0012B1FBF5F06FF01803584359
:101E000001EB800006EB0010B0FBF5F000F00F00D6
:101E100021681044886070BDA0FB010192185B41ED
:101E2000FEF7EEF90146B0FBF5F00201B1FBF5F06B
:101E30006FF01803584301EB800006EBC000B0FBC5
:101E4000F5F000F0F80002EB4002B1FBF5F058436A
:101E500001EB800006EBC000B0FBF5F000F00700DE
:101E6000D6E7000000100140001401408162828525
:101E7000C28500210164222280F83E2080F83C10B7
:101E80000168CA6842F48072CA6001684A6942F017
:101E900001024A610068C16841F02001C160002070
:101EA00070472DE9F041984617460E460446069DB8
:101EB0001DE0681C1BD02DB1FFF728F8A0EB08002F
:101EC000A84214D92068C16821F4D071C16020688B
:101ED000416921F001014161202084F83D0084F82E
:101EE0003E00002084F83C000320BDE8F08120681B
:101EF000006836EA000004D00020B842D9D00020A3
:101F0000F3E70120F9E700000148FFF7BFBB00003D
:101F100074010020FEE700000FB4054B10B503A9C3
:101F2000044A029800F05AF810BC5DF814FB000057
:101F3000292C0008800000200FB47CB50C0009ADEE
:101F400001D0611E00E00021CDE90001064B6A4688
:101F50002946089800F042F8002C02D0009A00218F
:101F600011707CBC5DF814FB332400080FB4084BDF
:101F700010B504A902AA039800F030F8044602A99B
:101F8000002000F061FA204610BC5DF814FB000050
:101F9000492400080907090E002804DB00F1E020AD
:101FA00080F80014704700F00F0000F1E02080F886
:101FB000141D7047004870478400002002E008C8E4
:101FC000121F08C1002AFAD170477047002001E0B3
:101FD00001C1121F002AFBD1704700002DE9FF4FFD
:101FE0008DB00F460546002606E025280BD0DDE91A
:101FF0000F1290476D1C761C28780028F5D111B07F
:102000003046BDE8F08F0024A246A1460122E949EE
:1020100000E0044315F8013F203B02FA03F00842B8
:10202000F7D128782A2810D06FF02F022878A0F155
:102030003001092914D80AEB8A0102EB410144F06E
:10204000020400EB010A6D1CF0E701CF5FEA000A11
:1020500003D544F40054CAF1000A44F002046D1C94
:1020600028782E2817D115F8010F44F004042A28E7
:102070000ED06FF02F022878A0F1300109290AD87C
:1020800009EB890102EB410100EB01096D1CF2E74C
:1020900057F8049B6D1C28786C280FD006DC4C2860
:1020A00017D068280DD06A2814D104E0742810D005
:1020B0007A280FD10DE044F400140AE044F48014AF
:1020C00001E044F440146978814202D104F580149F
:1020D0006D1C6D1C28786E281ED00CDC632830D057
:1020E00004DC00288BD0582811D19FE0642867D0E9
:1020F00069280CD164E073282DD004DC6F2872D0DD
:10210000702804D194E075286ED078286DD0DDE970
:102110000F129047761C4BE1C4F30250022806D000
:10212000032809D0042801CF09D0066040E101CF7F
:10213000F117C0E900613BE101CF068038E106708C
:1021400036E117F8040B8DF8000000208DF801002F
:10215000EB46012003E057F804BB4FF0FF30610766
:102160004FF0000102D40DE008F101018846494515
:102170000FDA8045F8DB1BF808100029F4D108E0DD
:1021800008F1010188468142FADB1BF8081000299A
:10219000F6D1DDE90F23AAEB08008146214600F0C5
:1021A00031F9304400EB080604E0DDE90F121BF8BA
:1021B000010B9047B8F10108F7D221464846F2E0FA
:1021C0000A21C4F302524FF0000B0891022A04D0F6
:1021D00001CFC117032A09D00AE0FF1D27F0070726
:1021E000F7E8020108E02CE01EE01FE000B2C11792
:1021F000042A01D140B2C117021E71F1000206DAB1
:102200000023D0EB030063EB01012D2202E0220545
:1022100004D52B228DF82420012203E0E20701D00F
:102220002022F7E7904653E00A210BE0102109E055
:1022300010214FF0000B44F004044FF008090891FE
:1022400003E008214FF0000B0891C4F30252022A68
:1022500004D001CF0021032A06D006E0FF1D27F09D
:102260000707F7E8020103E080B2042A00D1C0B2F8
:102270004FF0000822072BD52A78702A07D0DDF806
:1022800020C08CF0100C5CEA0B0C05D00EE0402254
:102290008DF82420012208E050EA010306D0302303
:1022A0008DF824308DF8252002229046089B83F07B
:1022B000080353EA0B030BD150EA010201D1620774
:1022C00006D530228DF824204FF00108A9F101092C
:1022D0002A78582A04D038A20B9208AA0A920BE056
:1022E0003AA2F9E75B46089AFDF78AFF0B9B9B5CD5
:1022F0000A9A521E0A92137050EA0102F2D10A9809
:10230000ADEB000000F1200B600702D524F480340F
:1023100001E04FF00109D94502DDA9EB0B0000E017
:10232000002000EB0B0141440890AAEB010AE003F6
:1023300006D4DDE90F232146504600F063F8064439
:102340004FF0000908E009A911F80900DDE90F12B2
:10235000904709F10109761CC145F4DBE0030CD577
:10236000DDE90F232146504600F04CF8064404E016
:10237000DDE90F1230209047761C0899481E08901E
:102380000029F5DC08E00A980A990078491C0A91AE
:10239000DDE90F129047761CBBF10001ABF1010B98
:1023A000F1DC21465046DDE90F2300F019F8064420
:1023B0006D1C21E6092801003031323334353637BF
:1023C0003839616263646566000000003031323381
:1023D0003435363738394142434445460000000021
:1023E0002DE9F041044600251E461746880404D412
:1023F00005E039462020B0476D1C641EF9D52846FB
:10240000BDE8F0812DE9F041044600251E469046C6
:10241000C80301D5302700E02027880404D505E053
:1024200041463846B0476D1C641EF9D52846BDE8C4
:10243000F0814A68002A06D00A68531C0B601070AD
:102440004868401E486070470A68531C0B60107053
:1024500070470FB585B00021009101910291039161
:1024600040F22711ADF800109DF81A108DF80410F5
:10247000BDF81B10ADF802109DF81D108DF8051069
:10248000DDF81E10CDF806100E226946FDF7E9FEB4
:1024900009B000BD70B50D4604460BA10B48FFF70F
:1024A00065FD74B1802C09D90948FFF735FD08E0B6
:1024B000064A2B5D07A11046FFF758FD641EE4B2E3
:1024C000F6D2024870BD000000000000C2010020EA
:1024D0001C2E000825732530327800001FB50446F5
:1024E00000200090019002900390ADF80010402071
:1024F0008DF80400ADF802208DF805300E226946F3
:102500000648FDF7AEFE05480E22017981F0100164
:10251000017169462046FDF7A4FE1FBDC2030020DD
:102520007FB504460026DDE908050096019602966F
:102530000396042803D911A0FFF7EEFC17E0ADF8CD
:102540000010C0F10400232141EA80008DF804004E
:10255000ADF802208DF80530042229460DF1060061
:1025600000F03CF90E2269460A48FDF77AFE0E2279
:1025700069462046FDF775FE7FBD00004572726F0B
:10258000723A204D6178206C656E203D20342E0D0E
:102590000A000000C203002010B51A22074B0021D8
:1025A00053F82140844203D1054850F8210010BD62
:1025B000491C9142F4DB03A010BD0000282D000847
:1025C00018000020556E6B6E6F776E206572726F0B
:1025D00072206D6573736167652E0000A0F1300194
:1025E000092901D8C8B20BE0A0F16101052901D881
:1025F000573804E0A0F14101052901D83738C0B2AD
:1026000000F00F0070472DE9F041044600780D46B8
:10261000782807D0582805D06078782804D0582822
:1026200002D002E0641C00E0A41C002C29D020464B
:10263000FDF73BFEC3B213F0010202D03026207832
:1026400001E026786078FFF7C9FF07463046FFF7BC
:10265000C5FF47EA001005F8010BC2F102020EE0C7
:10266000A018A65C4078FFF7B9FF07463046FFF791
:10267000B5FF47EA0010921C05F8010BD2B29A424E
:10268000EED3BDE8F081000077B58DB00DA890E8DD
:102690000E0002A8FFF7DDFE4FF4807531A2294637
:1026A0003C48FFF749FC0020ADF820000690079059
:1026B0009DF80C0041281FD004DC20281CD03028B5
:1026C00004D119E0602817D080281BD01F2826D8F5
:1026D000C0B200F00106C0F34200C0F10704224678
:1026E0000DF1370109A800F079F809A92046FFF794
:1026F000D1FE334628A22BE02BA229462548FFF71E
:102700001BFC2BE0DDF80E402046FFF745FF009054
:10271000234627A229461F48FFF70EFC1EE000F0C3
:10272000E30143291AD1C0F38100C0F1040402AED1
:10273000022208A8B11C00F051F80422B11D06A81D
:1027400000F04CF806A92046FFF7A4FE01231DA2C5
:10275000CDE9004029460F48FFF7EEFB10B00D48C9
:1027600070BD00004572726F723A204E65706F7ACC
:102770006E616E2043414E4F70656E2053444F2072
:102780006672616D6520726573706F6E73652E0D74
:102790000A000000C20200204F4B2025752C257531
:1027A0002C25730D0A0000004F4B0D0A000000009D
:1027B000455252203078253032782C2025730D0A6E
:1027C000000000004F4B2C2025752C30782530322E
:1027D000782C307825730D0A0000000010B5002316
:1027E00006E0D41A0C4414F8014CC4545B1CDBB250
:1027F0009342F6D310BD0FB40EB5002100910191A4
:102800000291BDF81410ADF800109DF818108DF865
:102810000210DDF81A10CDF80310BDF81E10ADF847
:1028200007109DF820108DF809100099016001999A
:102830004160BDF80810018103B05DF814FB000091
:102840001FB5044600200E490090019002900390AD
:10285000087900F010020888ADF8000042F060002E
:1028600080F010008DF804000E2269460448FDF740
:10287000F8FC0E2269462046FDF7F3FC1FBD000060
:10288000C20300207FB505460020154C0090019042
:10289000029003902079164600F010032088ADF8CE
:1028A000000083F010008DF80400072907D2C1F161
:1028B000070240EA420040F001008DF80400CAB26D
:1028C00031460DF10600FFF789FF0E2269460448E4
:1028D000FDF7C7FC0E2269462846FDF7C2FC7FBD06
:1028E000C20300207FB50025009504460898019595
:1028F00002950395ADF8001021258DF80450ADF830
:1029000002208DF80530CDF806000E2269460748F2
:10291000FDF7A7FC05480E22017981F01001017135
:1029200069462046FDF79DFC7FBD0000C2030020E4
:102930000FB40EB50021009101910291BDF8141061
:10294000ADF800109DF818108DF80210BDF81610A3
:10295000ADF803109DF819108DF80510DDF81A1068
:10296000CDF806100099016001994160BDF808108A
:10297000018103B05DF814FB2DE9F04194B04FF0F4
:1029800000070D008046029703970497059709D02A
:10299000202106A8FDF77EFC012406952046297813
:1029A00006AB16E0BDF81400ADF80000404602ACDE
:1029B00007E12C2A03D0202A01D011B106E02F54C0
:1029C00004E0291843F82410641CE4B2295C401C7C
:1029D000C0B22A5C002AECD1042284A10698FDF73B
:1029E0006BFC002870D106980422001D81A106907E
:1029F000FDF762FC00285AD05FF0000000EB4011A8
:102A000001EB801504227CA10698FDF755FCE8B384
:102A10005FF0000000EB001101EB801005EB4005BA
:102A2000042276A10698FDF747FC80B35FF0000012
:102A300000EB400101EBC0100544042270A1069890
:102A4000FDF73AFC88B3002000EB001005EB800591
:102A500002226CA10698FDF72FFC38B300206521F7
:102A600010FB01F00544042267A10698FDF724FC41
:102A700038B3002000EB400005EB400010F0FF05EC
:102A800022D06909601E884222D001E011E012E0E4
:102A9000621E5E48FFF740FABDF81400ADF8000072
:102AA00002AD404695E80E008DE006E007E001200B
:102AB000A4E70120AEE70120BAE70120C4E7012026
:102AC000CDE70120D6E7FFE751A0FFF725FA69E738
:102AD000612D05D0652D03D0832D01D0A22D10D1FD
:102AE0000798FDF730FCADF8080010220EA90898F1
:102AF000FDF7F1FBADF80A000998FDF724FC8DF80D
:102B00000D0002AC442D21D0832D08D0A22D0AD176
:102B100010220EA90B98FDF7DEFBCDF80E000A98E7
:102B2000FDF711FC0646652D06D032DC062D4DD092
:102B3000442D1CD0612DCAD19DF80D30BDF80A205E
:102B4000BDF808100FA8FFF7C9FC34E00798FDF79F
:102B5000FAFB064612970F97109711970FA908983E
:102B6000FFF751FDF2B20FA9A01DFFF737FEA21D1E
:102B700031460FA8FFF786FEBDF84800ADF800000B
:102B80000FAD404695E80E00FFF735FE14B0BDE8E6
:102B9000F081832D1ED0A22D99D10DF10E00F1B23E
:102BA000CDE900109DF80D30BDF80A20BDF80810E1
:102BB0000FA8FFF7B5FCBDF84800ADF8000040468F
:102BC0000FAC94E80E00FFF7B3FEDFE70FA8FFF7A6
:102BD00037FEF0E700969DF80D30BDF80A20BDF8ED
:102BE00008100FA8FFF77EFEE5E7000073646F5F33
:102BF00000000000725F6500775F6500775F73001B
:102C0000645F770072000000645F7200682E000845
:102C10004572726F723A204E657A6E616E20756BE6
:102C2000617A2E0D0A00000013B564230122694663
:102C30000248FEF7EFFE00981CBD000030010020A6
:102C40000EB5FEF771F9FEF7B5FFFEF761FF2048FC
:102C50001E494FF4165600240160C0E901640C259A
:102C6000C460C0E904458461C461FEF717FE08B181
:102C700072B6FEE71648174944380160C0E901649E
:102C8000C460C0E904458461C461FEF707FE08B171
:102C900072B6FEE7FEF71AFFFDF7FEFB0C480122B5
:102CA0000D494438FEF78EFE0B4D6D1E69680029F4
:102CB000FCD06846FFF760FEBDF8000018B19DE843
:102CC0000700FDF70BFC6C60F0E7000000440040DB
:102CD00074010020004C0040010000200B4A0A4B08
:102CE0000A28117807D00D2805D03B2803D0585466
:102CF000491C117005E00020585411B110700248B1
:102D0000704700207047000088000020000000206D
:102D1000000000000000000001020304060708098B
:102D20000000000001020304000003050000040588
:102D3000010004050500040500000106010001066C
:102D400002000106000002064100040642000406DB
:102D500043000406470004060000060610000706AC
:102D600012000706130007061100090630000906C5
:102D70003100090632000906360009060000000885
:102D8000200000082100000822000008230000089D
:102D90002400000800404040404040404040414145
:102DA0004141414040404040404040404040404020
:102DB00040404040400502020202020202020202BA
:102DC00002020202022020202020202020202002B7
:102DD0000202020202029090909090901010101047
:102DE00010101010101010101010101010101010E3
:102DF0000202020202028888888888880808080877
:102E00000808080808080808080808080808080842
:102E10000202020240000000952D00084572726F08
:102E2000723A2046756E6374696F6E2062636F5FDD
:102E3000636F6E766572745F6172725F746F5F73D9
:102E400074722063616E206F6E6C7920636F6E7692
:102E500065727420757020746F2031323820627969
:102E60007465732E0D0A00004572726F723A204E1F
:102E70006570726176696C6E6F2073746576696CCB
:102E80006F20706172616D6574726F762E20507262
:102E90006963616B6F76616E6F3A2025642C2052F6
:102EA00065616C6E6F3A2025640D0A00446174619F
:102EB00020636F756C64206E6F742062652074727D
:102EC000616E7366657265642064756520746F2039
:102ED00027646576696365207374617465272E00C5
:102EE0004461746120636F756C64206E6F7420623E
:102EF00065207472616E73666572656420647565C1
:102F000020746F20276C6F63616C20636F6E747226
:102F10006F6C272E000000004F626A6563742063A7
:102F2000616E6E6F74206265206D617070656420E3
:102F3000746F207468652050444F2E0056616C7584
:102F4000652072616E6765206F6620706172616DC9
:102F5000657465722065786365656465642E00003C
:102F60004461746120636F756C64206E6F742062BD
:102F700065207472616E736665726564206F72207D
:102F800073746F7265642E00546F67676C6520629E
:102F90006974206E6F7420616C7465726E61746503
:102FA000642E000047656E6572616C20696E746501
:102FB000726E616C20696E636F6D706174696269B5
:102FC0006C69747920696E2074686520646576691F
:102FD00063652E004D6178696D756D2076616C7545
:102FE00065206973206C657373207468616E206D51
:102FF000696E696D756D2076616C75652E000000D7
:1030000044617461207479706520646F6573206E0B
:103010006F74206D617463682C206C656E677468D2
:10302000206F6620736572766963652070617261D6
:103030006D6574657220646F6573206E6F74206DAA
:10304000617463682E00000056616C7565206F66C0
:1030500020706172616D6574657220777269747435
:10306000656E20746F6F20686967682E000000002D
:1030700044617461207479706520646F6573206E9B
:103080006F74206D617463682C206C656E67746862
:10309000206F662073657276696365207061726166
:1030A0006D6574657220746F6F20686967682E00A3
:1030B000546865206E756D62657220616E64206C67
:1030C000656E677468206F6620746865206F626A39
:1030D0006563747320746F206265206D6170706524
:1030E0006420776F756C642065786365656450440F
:1030F0004F206C656E6774682E00000047656E6532
:1031000072616C20706172616D6574657220696EA8
:10311000636F6D7061746962696C6974792072653E
:1031200061736F6E2E000000436C69656E742F73BF
:10313000657276657220636F6D6D616E6420737069
:1031400065636966696572206E6F742076616C696B
:1031500064206F7220756E6B6E6F776E2E000000AC
:10316000416363657373206661696C65642064758F
:103170006520746F20616E2068617264776172658A
:10318000206572726F722E0047656E6572616C20E9
:103190006572726F722E0000556E737570706F726B
:1031A0007465642061636365737320746F20616E5E
:1031B000206F626A6563742E0000000041747465BC
:1031C0006D707420746F207772697465206120724D
:1031D000656164206F6E6C79206F626A6563742E1E
:1031E00000000000417474656D707420746F20726B
:1031F0006561642061207772697465206F6E6C79F7
:10320000206F626A6563742E000000005375622DA2
:10321000696E64657820646F6573206E6F742065D5
:10322000786973742E0000004F626A6563742064CD
:10323000696374696F6E61727920646F6573206E63
:103240006F742065786973742E00000053444F201A
:1032500070726F746F636F6C2074696D6564206F3A
:1032600075742E0056616C7565206F6620706172F2
:10327000616D65746572207772697474656E20740F
:103280006F6F206C6F772E004461746120747970C9
:103290006520646F6573206E6F74206D6174636860
:1032A0002C206C656E677468206F6620736572767B
:1032B00069636520706172616D6574657220746FF9
:1032C0006F206C6F772E00004F626A656374206414
:1032D0006F6573206E6F7420657869737420696EF2
:1032E00020746865206F626A656374206469637422
:1032F000696F6E6172792E004F7574206F66206D54
:10330000656D6F72792E00002833000800000020E0
:1033100088000000BC1F0008B033000888000020AF
:1033200048070000CC1F000800000000000000005B
:103330000100000010000000000000000024F40064
:10334000882F00084C32000828310008F8320008A5
:1033500098310008E4310008BC310008C832000888
:10336000182F0008B0300008FC300008A42F000817
:103370006031000800300008703000088832000812
:103380000C3200083C2F0008483000086432000866
:10339000D42F000888310008602F0008E02E0008B4
:1033A000AC2E0008283200080000000000000000D9
:04000005080001C529
:00000001FF
